:020000040800F2
:10000000280800208101000865350008012F00083C
:1000100000000000000000000000000000000000E0
:100020000000000000000000000000007D36000815
:100030000000000000000000673500087F3600085F
:100040009301000893010008930100089301000840
:100050009301000893010008930100086D07000850
:100060009301000893010008930100089301000820
:1000700093010008930100089301000889360008E5
:100080009536000893010008930100080000000065
:1000900093010008930100089301000893010008F0
:1000A00093010008930100089301000893010008E0
:1000B00093010008930100089301000893010008D0
:1000C00000F002F800F04CF812A030C808382418EC
:1000D0002D18AC4201D100F043F80FCCA246AB463C
:1000E0000CA730CF2D1B083F3F197C427F1E544484
:1000F0002D090426F441641EAC4201D300F030F80F
:100100000126334200D0FB1A3343984754465D46DC
:10011000DFE70000003C0000203C0000103A02D362
:1001200078C878C1FAD8520701D330C830C101D598
:1001300004680C6070470000704700000023002432
:1001400000250026103A01D378C1FBD8520700D30E
:1001500030C100D50B6070471FB51FBD10B510BD75
:1001600000F060F91146FFF7F7FF03F067FB00F0BE
:1001700078F903B4FFF7F2FF03BC00F0CDF90000FB
:100180000748804707480047FEE7FEE7FEE7FEE72F
:10019000FEE7FEE704480549054A064B70470000A4
:1001A00087360008C1000008280200202808002027
:1001B000280400202804002001E004C0091F0429AD
:1001C000FBD28B0701D50280801CC90700D00270CA
:1001D000704700290BD0C30702D00270401C491E93
:1001E000022904D3830702D50280801C891EE3E71D
:1001F0000022EEE70022DFE77047704770470000FB
:10020000F0B5FF252D04C609C209FF2704462E407C
:100210000137CB093E4348402A402B400746002A7D
:100220006BD0002B69D0AA4267D0AB4265D00028C2
:1002300000DA32460125ED0529432C43090220024C
:10024000090AD21A4B0C7F24E31A434C000A7C445F
:10025000E35C7D242404121914145B00A218884264
:1002600001D3521C00E0400049420C465C4324117B
:100270005C43DB016415E318040A5C43C502200DEE
:100280000C4644436419250A5D432303EC0C0D46D8
:10029000654300030019EB184C42A34201D35B18DD
:1002A000401CD4052018002B07D05B00C91804D3CC
:1002B000401C002901D1400840003F2189048A42A6
:1002C00009D3002A08DC1106090F04D003214907CD
:1002D0004018C00FC007F0BD012241001206891866
:1002E0007F2252069142F6D205214907C84201D524
:1002F0009010F0BDFF20C005F0BD002F00DA32469F
:100300001648AA4207D2AB4205D21902090E17D0ED
:10031000F80FC007F0BDFF2563002D06AB42F9D8EA
:100320004900A942F6D8AB4201D1A942F2D0A94274
:1003300001D1002101E061004908D0050843F0BD6A
:100340001102090EFBD0FF200243D005F0BD0A4682
:100350000146104654E700002E3A00000000C07F1E
:100360001F22030C02D10F2200041CD0030E01D166
:100370000002083A030F01D10001121F830F01D1BF
:100380008000921E002801DB4000521ED205511849
:10039000021251181922904004D3491C002801D19F
:1003A0004908490008467047C10FC90700D04042BC
:1003B000012292071143D3E701218907D0E700000A
:1003C00010B5FF231B0644009C421DD84C009C42E4
:1003D0001AD80346124A0B4307D4401A02D3EFF34C
:1003E000008010BDEFF3008010BD081A03D3EFF3B7
:1003F0000080904305E0EFF3008001219043C9079E
:10040000084380F3008810BD0D231B041A4204D05A
:100410001146002000F02DF810BD00F041F810BD8D
:1004200000000090754600F043F8AE4605006946AE
:100430005346C008C000854618B020B5FFF7AAFE95
:1004400060BCB64600260027C0C5C0C5C0C5C0C533
:10045000C0C5C0C5C0C5C0C5403D490849008D469E
:10046000704710B50446C046C0462046FFF781FEDF
:1004700010BDC80212D54803400F002804D0C8039D
:10048000C043012188407047EFF30080000100095C
:1004900003210907084380F3008870470020704754
:1004A00010B5024800F008F810BD00000000C07F41
:1004B000004870471000002010B50C461107090FC6
:1004C000092904D00A290AD008290CD104E01146D0
:1004D0000820FFF7CEFF06E0510606D501E05106E1
:1004E00001D50120C007214610BDD10607D5010165
:1004F0000909CC084907000E0006044309E0410F32
:1005000020024907000A0143200E00061D22D141A6
:1005100001430846E7E7000001491820ABBEFEE7AB
:10052000260002007047000070B582B004460068E3
:10053000816803220A40012A02D10168C9074AD111
:100540008168284A114208D0606D1021014361651D
:10055000A16D01200143A1653BE0816801220A43AE
:100560008260CE480068CE4903F002FA01900198FB
:10057000002817D00198401E01900198002811D042
:100580000198401E0190019800280BD00198401E50
:1005900001900198002805D00198401E0190019813
:1005A0000028E7D100F0C4FC05462068016800205F
:1005B000C9070ED1064602E00068C0070ED100F060
:1005C000B7FC411B20680B29F6D30168C907F3D19A
:1005D000BAE702B070BD002002B070BD304602B074
:1005E00070BDC04617000080B0B588B006A80024D2
:1005F000C470847008214170047002A8C4708470B3
:100600004170047007940594049403940194009439
:1006100002F078FC002844D002F01CFD002840D0F5
:100620002020232101AA02F0F5FD242027216A467B
:1006300002F0F0FD0024032107AA204602F0EAFDA3
:100640000425072106AA284602F0E4FD08200B2114
:1006500005AA02F0DFFD1020132104AA02F0DAFD42
:100660001420172103AA02F0D5FD18201B2102AA8D
:1006700002F0D0FD6020294602F0A0FD702001218B
:1006800002F09CFD2A20214602F098FD2920E52158
:1006900002F094FD2820832102F090FD02F034FD49
:1006A0000446204608B0B0BDF0B581B004462E4DDA
:1006B00000262E6002F092FC287141070FD4616879
:1006C000207802281DD1480BE02202408803800FC9
:1006D000121808324B0D0F0A8126402033E0C10664
:1006E00014D461682078022822D1480BE02202400D
:1006F0008803800F121808324B0D0F0A8226422001
:1007000021E04A01130A812640201AE0400628D43D
:1007100061682078022810D1480BE022024088034B
:10072000800F121808324B0D0F0A842644200AE06D
:100730004A01130A8226422003E04A01130A842652
:10074000442000210F46AF70E9706A702B70227A46
:1007500009342946234602F011FC304602F060FCC1
:100760000126304601B0F0BD7000002010B5012414
:10077000200200F0F7FA600300F0F4FA10BDEFF386
:10078000108072B6FEE70000F0B583B05022825CA4
:10079000012A02D1022003B0F0BD044650340268A1
:1007A00093685B0719D40F684B683A4838400126B4
:1007B0003104019171040091B104374DAB4215D160
:1007C000936A834393620F42A44D23D1009807425A
:1007D00027D1019807422BD12EE0416D20220A43F8
:1007E000426501200021217003B0F0BD936A0343EC
:1007F00093620F42994D24D10098074203D0B0056F
:100800002968014329600198074215D031062868FC
:10081000084310E0F00529688143296000980742E9
:10082000D7D0B0052968814329600198074203D0D9
:10083000310628688843286000200021217003B019
:10084000F0BDF00529680143296014480068144987
:1008500003F08EF80A214143029102980028CBD080
:100860000298401E029002980028C5D00298401EAF
:10087000029002980028BFD00298401E0290029871
:100880000028B9D00298401E029002980028E7D1B3
:10089000B2E7C046FFFF070001100000080000207B
:1008A00040420F000068006C70470000F0B583B054
:1008B000012400283AD006465036416D002903D065
:1008C000416DC9060AD52BE00021317081650546CE
:1008D00000F0CCF82846416DC90621D401688A6829
:1008E00052071DD481225200436D93439A1C4265E6
:1008F0008A6803252A40594C012A02D10A68D20786
:100900002AD142680126F707554BBA4205D0B607EF
:10091000B24202D0AD07AA420BD10D4610350DE010
:1009200000213170416D10220A434265204603B018
:10093000F0BD0D691D400D614A4B25462E681E40D5
:100940002E602B6813432B60CA6818239A43CA6031
:100950008268CB681343CB600346203301225506DF
:100960002668AE432660456B6D0626682E432660DA
:100970008C68E40003D414078D6825438D600292CF
:10098000CC68394D2540CD600469A41E654265419F
:10099000AC00C66826431D786C033443066B2643BF
:1009A0001C7B640034438669C769B6032643FC0395
:1009B0003443CE682643CE60476A0E460C36FF2489
:1009C0000194C234A74216D15A78012A029F1BD043
:1009D0000B69C26B012A29D1019A920093430B61E2
:1009E000044640341CCC134323430A691A430A616A
:1009F0000B693B431EE03468826A22433A4332600B
:100A00005A78012A029FE3D1002D07D0426D20239E
:100A100013434365064658363B4600E03B043268C4
:100A20001A4332600B69C26B012AD5D0DA0702D0B3
:100A30000B69BB430B614A6907239A434A61826B86
:100A40004B6913434B6100248465416D3943022295
:100A500091434165204603B0F0BDC04608270140E0
:100A6000FFFFFF3FFFFFC3FF1902FEFF10B586B077
:100A700000210591049103910291019100680E4AB1
:100A8000904201D006B010BD0C488268012301934A
:100A90005C021443846002681A43026000681840D4
:100AA000009003910320029005200007009901A9FE
:100AB00000F064F906B010BD002401402C10024083
:100AC000F0B581B00D460446014650314069082812
:100AD00002D10091082705E02068C068C00767D1EF
:100AE00000910C2700F024FA064621680868384275
:100AF0001ED001204202636D13436365CA6812056C
:100B0000920F67D1224620321278002A62D10A68F9
:100B100012075FD58A68520753D4224654324B6875
:100B20000C25AB434B60FF2502351368AB434FE008
:100B3000681C39D0002D1BD10868384221D00868C4
:100B40003842D6D1086838421BD008683842D0D124
:100B50000868384215D008683842CAD10868384257
:100B60000FD008683842E7D0C3E708683842C0D1E0
:100B700000F0DEF9801B2168A842F6D908683842E7
:100B8000F3D1002000990870606D04210143616574
:100B9000032001B0F0BD08683842AAD10868384285
:100BA000A7D108683842A4D108683842F3D0A0E73A
:100BB00000200870606D202101436165012001B0B3
:100BC000F0BD626D20231343636522465832A36D46
:100BD00003431360A2690020002A01D001B0F0BDD8
:100BE0000C220A6001B0F0BD70B501688A6802216C
:100BF000520713D45022825C012A0FD0054650358B
:100C000001212970C269012A0AD004460E46FFF765
:100C10008BFC024631462046002A01D0084670BDB2
:100C2000416D094A0A40012109025118416500211C
:100C3000816500681C2202602970826804231343C6
:100C40008360084670BDC046FEF0FFFFF0B581B07E
:100C500004465020205C012802D1022001B0F0BDE2
:100C600026465036012737702068816849070ED420
:100C7000826803210A40012A02D10268D20721D1E9
:100C8000FF200230616D8143543400203BE08168D5
:100C9000490706D58168890703D4816810220A4371
:100CA000826000F045F90546206881684907DFD574
:100CB00000F03EF9411B20680B29F6D381684907F3
:100CC000F3D519E0826805231340012B14D1826803
:100CD000022313438360016000F02AF9054620686F
:100CE0008068C007CCD000F023F9411B20680B2995
:100CF000F6D38168C907F3D0606D102101436165A7
:100D0000A16D58343846002232703943216001B059
:100D1000F0BD0000F0B585B001273902884218D136
:100D20000520040720252046294600F0F0F86846F3
:100D300000260674077008490391084902910221B0
:100D40000191FFF7B1FC2046294600F0E0F8044885
:100D5000067005B0F0BDC0466570000008736C6594
:100D60000C00002080B504490A68024202D00860E5
:100D7000FFF7D0FF80BDC04614040140F0B58AB033
:100D800007900B68002B00D1B3E00E465A48079934
:100D9000814201D0062000E005200B210907079AB7
:100DA00052180A21CA410192052A00D301900798DE
:100DB00020300090002215461746029619460BE097
:100DC00021434E4801607F1C31680846F840121DDF
:100DD000AD1C002800D18CE001231846B84001402A
:100DE000F1D0059306920391324603263146A9407D
:100DF0000495CD4351680C463440631E012B089581
:100E0000099110D807998B682B40D668049DAE4095
:100E10001E438E60099AD306DB0FBB404E688643A3
:100E20001E434E6006E0032C049D03D13446029E0F
:100E3000069A1DE00799C868089A1040029EB36898
:100E4000AB400343CB60022C069A11D11C2010400A
:100E50000F218140FB089B00009AD4588C433169D4
:100E600081402143D150069A7068032409900440C0
:100E7000AC4007990868089B18402043086009980F
:100E80008003800F059B9ED0504908681843086076
:100E90000C2010400F21814003233C469C43184BFB
:100EA000E3588B4301998140194315482150134859
:100EB00081687068C30202D5039C214301E0039C52
:100EC000A1430E4B9960D968830201D5214300E00C
:100ED000A1430A4BD9605968830301D5214300E03F
:100EE000A143064B59601968C00300D568E7A143C8
:100EF00067E70AB0F0BDC046001C00500004014086
:100F00000800014000690840411E8841704742695D
:100F10000B4693430A401104C91881617047002AA7
:100F200002D018228150704728228150704700005B
:100F3000054800687047C0461D48007802490A68A5
:100F4000101808607047C0462402002010B50848F9
:100F5000016840220A4302600024204600F00AF89B
:100F6000002801D0012010BD00F026F8204610BD59
:100F70000020024070B504467D20C0000C4E317840
:100F800002F0F6FC01460B48006802F0F1FC01F0AB
:100F90000BFA0125032C08D8002806D10025E843C8
:100FA00021462A4600F020F87460284670BDC046ED
:100FB00000000020080000200448016801221143BD
:100FC0000160110742680A434260704734100240D2
:100FD000002805D41F2108400121814001480160FB
:100FE0007047C04600E100E0002805D40322034614
:100FF00093430A4A9A1803E00C220240064BD21887
:101000008007C00E8901C9B28140FF238340106868
:10101000984308431060704714ED00E000E400E0DE
:10102000F0B589B0066801252F02EA021146203189
:10103000874B0E427CD0059208902907143B186814
:101040000840049002D11868084318600193029187
:10105000804C2068384211D1206838432060FFF767
:1010600067FF06462068384208D1FFF761FF801B02
:101070006428F7D90325284609B0F0BD03263405B6
:1010800073484C38069001682140089B5868024616
:10109000039422400096340491420AD10246224031
:1010A000A242069E0DD19A68039B1A40914205D137
:1010B00007E001462140A142069E02D13168890322
:1010C000D9D4634B59680794214021D0079A104026
:1010D000814203D00898007880060AD40898806876
:1010E000079A1040814213D0089800680599084279
:1010F0000ED05868E9045A680A435A605A688A430D
:101100005A600146079A91435960384200D08CE0FA
:101110000898066805990E42079C59D1B1066DD40E
:101120000499002904D1019C2168029A914321600D
:10113000F1070DD1B10713D4710719D4310720D4A9
:101140003E4227D171062ED40025310693D535E0D5
:10115000196803229143C2680A431A60B107EBD5AC
:1011600019680C22914302690A431A607107E5D598
:10117000032189021A688A434169114319603107C2
:10118000DED5032109031A688A4381691143196076
:101190003E42D7D0032109041A688A43C16911432A
:1011A00019607106D0D5012189061A688A43416AFF
:1011B000114319600025310600D45CE703218A043D
:1011C00019689143006A08431860284609B0F0BDC9
:1011D000826811462140A1420BD1039802400323AB
:1011E0001B05069D2C689C43194B089814432C60E2
:1011F000079C5A680A435A60B10691D54268114665
:101200002140A1420AD10398024003231B05069DF9
:101210002C689C430E4B089814432C605A680A4370
:101220005A600499002983D17DE7FFF781FE0546C6
:10123000884C074B5868800500D569E7FFF778FEB2
:10124000401BA042F5D9009D284609B0F0BDC0461C
:101250004C10024000700040F0B583B0002846D02A
:101260000E4602907A480068012101910840B04280
:1012700016D2774908680125A84330430860754CA9
:10128000FFF756FE0746724800682840B04207D074
:10129000FFF74EFEC01BA042F5D9032003B0F0BDFE
:1012A000029D28688107794C05D52168F022914379
:1012B000AA680A432260C0071CD16548006801275C
:1012C0003840B04224D962490868B8430860614C8C
:1012D000FFF72EFE05465E480068C00718D0FFF7EE
:1012E00027FE401BA042F6D9032003B0F0BD012029
:1012F00003B0F0BD6A6821460C390968012A34D070
:10130000032A2DD0022A72D1890301982BD52FE010
:10131000029B186841075D4C06D507210902226827
:101320008A43D96811432160000707D50720C0020E
:10133000216881431869C0000843206021680807BC
:10134000820F6E487A441279520097440154735BBD
:1013500038042146083909680904490F884069E0C2
:101360008901019804D403B0F0BD49070198FAD56A
:10137000216803200190814311432160FFF7D8FDCC
:1013800007466868334D03282BD002281ED0012859
:101390000AD120680C21014004298ED0FFF7C8FD36
:1013A000C01BA842F5D909E020680007800F00D1D2
:1013B00083E7FFF7BDFDC01BA842F5D9019803B034
:1013C000F0BDFFF7B5FDC01BA842F7D820680C217F
:1013D00001400829F5D170E7FFF7AAFDC01BA8421C
:1013E000ECD820680C2101400C29F5D165E789056E
:1013F0000198B8D5BCE720460C380068C00612D565
:10140000414817E08A02120F3D4B9A5C0902890F8E
:10141000491C2368DB0309D420460C380068C00649
:1014200003D5394802E0374804E0364842431046C5
:1014300002F09EFA21680906090F074A515CC8406C
:101440001149086005480068FFF794FD03B0F0BD3E
:101450000020024088130000C03C00080400002067
:1014600009480068094909684905490F084A515C5B
:10147000C840704704480068044909688904490F56
:10148000034A515CC8407047080000200C1002401D
:10149000D03C000810B5854BD9680807820F174863
:1014A0007A441279520097440108070D0120000484
:1014B00059680904490F884010BD1868C00614D542
:1014C000114810BD8A02120F0D4CA25C0902890F4F
:1014D000491CDC68E40303D41868C00607D50A4831
:1014E0004243104602F044FA10BD064810BD0548BC
:1014F0004243104602F03CFA10BDC04600127A008A
:10150000D83C00080024F40000093D00F0B589B083
:10151000002856D0654EF1680C220A40069201213F
:1015200005910904F76804910F4007900078C007FF
:1015300010D00698082806D006980C2800D0D7E0CE
:10154000002F00D1D4E03068800303D507984068AD
:10155000002852D007980078800735D40798007883
:10156000C0064DD407980078000767D4079908781B
:10157000400700D59CE00878800600D51FE1079859
:10158000846A002C1AD006980C2800D068E1012C3F
:1015900033D0F068049A0240079BD96A8A422CD162
:1015A0000F21890401401A6B914226D1032189053C
:1015B0000840596B8842059800D056E2002009B0D7
:1015C000F0BD012009B0F0BD079BD868810604D5A5
:1015D000316820221143316090430699042906D0D6
:1015E00006990C2900D0A9E0002F00D0A6E03168B0
:1015F00000283AD10422114037D0059809B0F0BD37
:10160000012044020699002900D1ADE03168079A13
:10161000D2690002002A00D101E101433160FFF7E5
:1016200087FC05463068204200D008E1FFF780FCC7
:10163000401B0228F6D9032009B0F0BD306D079990
:101640004969002900D1D9E0012108433065FFF73D
:101650006FFC0546306D800788D4FFF769FC401B9E
:101660000228F7D9032009B0F0BD1F2109027268D2
:101670008A43196909021143716031680922914353
:1016800001433160F1680807820FF9485200C046F3
:101690007A4492885200974403002401D9013A0108
:1016A00070680004410F04988840CFE100100240A8
:1016B00001221107B06B0840029002D1B06B0843C1
:1016C000B063019103921402F04F3868C00523D42F
:1016D000386820433860FFF72BFC05463868204205
:1016E0001AD1FFF725FC411B03206429F6D9BCE180
:1016F000306807994968049A914209D0052212047A
:10170000914200D0CDE005998904084330603068EB
:10171000049908433060D3E007988168306D039BDB
:101720005F02002900D12AE105221202914200D174
:101730001FE1A14200D036E1204339E131680028A1
:1017400000D1D3E00922914301433160FFF7F0FB60
:1017500005463068400700D501E1FFF7E9FB411B72
:1017600003200229F5D980E13168214204D007998C
:10177000C969002900D178E10720400371688143DD
:10178000079B586A01437160FF21090672688A430A
:10179000196A090689187160400B04998140F06844
:1017A0000006000FB64A105CC140B6480160B6485A
:1017B0000068FFF7DFFB002800D056E1D2E6B068F2
:1017C00007998969002900D1B3E001210843B0607D
:1017D000706B084370634803AE490A6802430A60AD
:1017E000FFF7A6FB0546B068800700D5C7E6FFF700
:1017F0009FFB411B03200229F5D936E101218843D3
:101800003065FFF795FB0546306D800700D4ADE6E7
:10181000FFF78EFB411B03200229F5D925E1814307
:101820003160FFF785FB05463068204200D199E61C
:10183000FFF77EFB411B03200229F5D915E10720A4
:10184000400371688143079A506A08437060FF2023
:10185000000671688143106A00064018706081E6D6
:101860000120010632688A4332604706FFF760FBB9
:101870000546022C0AD13068384200D1C3E0FFF798
:1018800057FB411B03200229F5D9EEE030683842AE
:1018900000D193E6FFF74CFB411B03200229F5D949
:1018A000E3E0049A90433060306810400890089854
:1018B00005988004326882433260002900D192E0AA
:1018C00005984404FFF734FB05463068204200D0F9
:1018D00040E6FFF72DFB401B6428F6D9032009B032
:1018E000F0BD3068C0067CD56448AFE0012081437C
:1018F0003160FFF71DFB05463068400700D42DE638
:10190000FFF716FB411B03200229F5D9ADE08A023F
:10191000120F584B9A5C0902890F491CF368049C0A
:10192000234200D08EE03068C00600D489E05348DE
:1019300088E001218843B060480356490A68824321
:101940000A60FFF7F5FA0546B068800700D416E68E
:10195000FFF7EEFA411B03200229F5D985E01F208D
:1019600000027168814307980069000208437060B3
:10197000F4E5990208433065306D204318E0A04338
:1019800030659802316D81433165FFF7D1FA054624
:101990003F4C306D38421AD0FFF7CAFA411B032082
:1019A000A142F6D961E0A04330659902306D8843C9
:1019B0003065FFF7BDFA0546354C306D384206D12B
:1019C000FFF7B6FA411B0320A142F6D94DE0029879
:1019D0000028079900D0CEE5B06B019A9043B06320
:1019E000C9E5254832E005984404FFF7A1FA054609
:1019F0003068204200D1ADE5FFF79AFA411B032081
:101A00006429F5D931E0FD200004F1688143079B8A
:101A10002C330DCB084310431843F0601E48401C84
:101A2000316801433160FFF783FA04463068384279
:101A300000D0C3E5FFF77CFA011B03200229F5D98A
:101A400013E00D484243104601F092FFF168090689
:101A5000090F0B4A515CC8400A4908600A480068EF
:101A6000FFF788FA002800D178E509B0F0BDC0463C
:101A700000127A00D83C00080024F40000093D0060
:101A8000C03C000808000020040000200070004056
:101A90008813000020000140FFFFFF005121405C3F
:101AA0007047F0B583B000280AD004465034412175
:101AB0008F00416A002906D000210161142106E04F
:101AC000012003B0F0BD4168B94202D01C210022C0
:101AD00042500021029181626178002905D10021E4
:101AE0002170054600F03EF8284602256570016821
:101AF0000A6840239A430A6042683A4021239B02C5
:101B0000019484681C40A4180122D602C3683340A3
:101B1000E31804692C401C43436913402343FC37FA
:101B200085692F401F43C36938241C403C43036A26
:101B300080271F4027435303846A1C403C430C60AA
:101B4000436A10241C402B0C04251D4063194B6074
:101B5000CB69B343CB610299416501984270084655
:101B600003B0F0BDF0B587B0002506950595049546
:101B70000395029500681949884201D007B0F0BD6D
:101B800001210A03164883681343836002680A43ED
:101B9000026002680A4001920199016802263143FD
:101BA0000160006830400190069503270597049571
:101BB0000396C020029001980520000702AC214640
:101BC000FFF7DCF806950597049503960820029028
:101BD00004482146FFF7D2F807B0F0BD00300140BD
:101BE0002C10024000040050F0B587B00693044664
:101BF000064650367078022501283ED10120002982
:101C000000D1ECE0002A00D1E9E0049241208200FA
:101C10006068904203D1A068002800D1BFE0039221
:101C20000F46FFF785F90590307801282846049A79
:101C300000D1D4E039460420707000276765E28740
:101C400001233370A287A163A78627632764676493
:101C5000E78620680493DA03A168029291423AD0A1
:101C600001684906069D43D5E08FE168002947D009
:101C700000287BD0681C0ED11DE0284607B0F0BDBF
:101C8000A16BC0680880881CA063E08F401EE087BD
:101C9000E08F00286AD020688168C907F0D1FFF77B
:101CA00047F90599401AA842F2D344E0FFF740F9FA
:101CB000E08F00285AD020688168C907F6D0A16B50
:101CC000C0680880881CA063E08F401EE087E08F1A
:101CD0000028F0D14AE00168402291430160049954
:101CE000890302688A43026001684906069DBBD4E5
:101CF000016840220A430260E08FE1680029B7D101
:101D0000002833D0681C0CD120E0007BA16B087048
:101D1000A06B401CA063E08F401EE087E08F00288E
:101D200024D020688168C907EFD1FFF701F9059930
:101D3000401AA842F2D3377004987070032007B09D
:101D4000F0BDFFF7F5F8E08F00280FD0206881681C
:101D5000C907F6D0007BA16B0870A06B401CA06384
:101D6000E08F401EE087E08F0028EFD16068039984
:101D7000884210D1A0680299884203D00499890250
:101D8000884217D121680A6840239A430A6004995F
:101D9000890288420ED10598009001210DE00420AF
:101DA00070700698009020460A46049B00F056F991
:101DB00007B0F0BD059800908021002220462B46F8
:101DC00001F0D2FB002804D0606D2021084360653B
:101DD0006165049870703770606D411E884107B06E
:101DE000F0BD0000F0B589B0059316460D460446D7
:101DF00007465037FFF79CF879780222012952D123
:101E000004970127002D4FD0002E4DD0049909785A
:101E10000129174648D00327049A577000216165AD
:101E2000E68601231370A6862563A187A16321643A
:101E300061640291E18722680393D9031346A26883
:101E40008A4208D119684022914319600399890395
:101E50001A680A431A6006901968490603D419687B
:101E600040220A431A60019361684A424A41731E44
:101E70005942594111430398C202E368934242D147
:101E80000029059E069B07D029880198C160A81CDF
:101E90002063E08E401EE086E08E0028029D79D00F
:101EA000701C0FD11FE01746384609B0F0BD216BFA
:101EB0000A88C260881C2063E08E401EE086E08EA7
:101EC000002867D0206881688907F0D4FFF730F8D0
:101ED000069BC01AB042F2D33FE0FFF729F8069BF9
:101EE000E08E002856D0206881688907F5D5216BDF
:101EF0000A88C260881C2063E08E401EE086E08E67
:101F00000028F0D146E00029059E069B08D02978DC
:101F100001980173206B401C2063E08E401EE08618
:101F2000E08E0028029D35D0701C0CD122E0216B80
:101F300009780173206B401C2063E08E401EE08610
:101F4000E08E002826D0206881688907EFD4FEF74C
:101F5000EFFF069BC01AB042F2D3049805700399B4
:101F60004170384609B0F0BDFEF7E2FF069BE08EF7
:101F700000280FD0206881688907F5D5216B097882
:101F80000173206B401C2063E08E401EE086E08ED3
:101F90000028EFD100930221012720463A4633461C
:101FA00001F0E2FA002817D0606D20210843606537
:101FB0006165A068002806D107952068C16807916F
:101FC000806807900798049847700570676D781EC1
:101FD0008741384609B0F0BDF1480068F14901F089
:101FE000C7FC7D21C9004143089141208000616800
:101FF00081420AD106980090802100222046334673
:1020000001F0B2FA0028CFD1D3E708980028D0D049
:102010000898401E0890206880680006C9D5089876
:102020000028C6D00898401E0890206880680006E6
:10203000BFD508980028BCD00898401E089020689A
:1020400080680006B5D508980028B2D00898401ED0
:102050000890206880680006D7D4AAE7F0B587B05A
:102060001E4615460391074604465034FEF760FFAE
:1020700004900294617801290ED10120039900296E
:1020800015D0002D13D0002E11D002990878012808
:102090000FD1022007B0F0BD412082007B680220F2
:1020A000934204D1042902D1B9680029E5D007B0D0
:1020B000F0BD0120044608704878042801D00520AE
:1020C000487000207865FE87FE86BD63BE87039951
:1020D0003963386401907864BE86386801684906BF
:1020E00003D4016840220A4302600C9D79684A4289
:1020F0004A41731E594259411143E202FB6893421F
:102100003DD1002907D0039A1188C160901C386323
:10211000F88E401EF8862E46681C7BD00125049C54
:1021200004E0FEF705FF001BB0426BD2F88E0028DA
:1021300003D1F88F002800D1C7E03868816889078B
:102140000DD5F98E00290AD0012D08D1396B0A88E6
:10215000C260891C3963F98E491EF98600258168A1
:10216000C907DED0F98F0029DBD0B96BC0680880C1
:10217000881CB863F88F401EF8870125D1E7002935
:1021800008D0039909780173386B401C3863F88EC6
:10219000401EF8862E46681C68D0019D05E0FEF7BB
:1021A000C7FE0499401AB0422CD2F88E002803D101
:1021B000F88F002800D188E038688168890710D539
:1021C000F98E00290DD02146012C0AD1396B0978EE
:1021D0000173386B401C3863F88E401EF8863868EF
:1021E0002C468168C907DAD0F98F0029D7D0B96B9E
:1021F000C0680870B86B401CB863F88F401EF88741
:102200000124CCE7002002990870012048700320C7
:1022100007B0F0BD012501E0FEF78AFEF88E002828
:1022200002D1F88F002850D03868816889070DD511
:10223000F98E00290AD0012D08D1396B0A88C260B5
:10224000891C3963F98E491EF98600258168C90702
:10225000E2D0F98F0029DFD0B96BC0680880881CF4
:10226000B863F88F401EF8870125D5E7012501E006
:10227000FEF75EFEF88E002802D1F88F002824D0E9
:102280003868816889070FD5F98E00290CD0012D97
:102290000AD1396B09780173386B401C3863F88EAA
:1022A000401EF886386800258168C907E0D0F98F9C
:1022B0000029DDD0B96BC0680870B86B401CB863EA
:1022C000F88F401EF8870125D2E7049C0094022174
:1022D000012238461546334601F046F900280AD057
:1022E000786D2021084378650020029A1070796586
:1022F000284607B0F0BD2A4800682A4901F038FB9B
:102300007D21C900414306914120800079688142C6
:1023100009D10094802100223846334601F024F987
:102320000028DDD127E00698002824D00698401E1A
:1023300006903868806800061DD5069800281AD0D7
:102340000698401E069038688068000613D50698E7
:10235000002810D00698401E069038688068000655
:1023600009D50698002806D00698401E06903868C1
:1023700080680006D7D4B868002807D100200590EF
:102380003868C16805918068059005980120029918
:10239000487000200870786D411E884107B0F0BD7C
:1023A0000800002000366E01401E010E01D0012001
:1023B00070470749074A5060074803680B400321EC
:1023C000890759180160002090600721116070474B
:1023D000FFFFFF0010E000E020ED00E010B5382224
:1023E000825C012A01D1022010BD0246383202234C
:1023F0005370006843687024A3430C681C438368CF
:102400004460714CA04207DC0124A407A04209D01B
:10241000704CA04206D00AE06C4CA04202D06C4C3A
:10242000A04204D18024A34349681943816000205D
:1024300010700121517010BDB0B5002819D00546AB
:1024400038356978002905D100212970044600F04B
:102450004DF820460221697001680C685A4B994278
:1024600009DC0122920791420BD05A4A914208D0CE
:1024700015E00120B0BD554A914202D0544A914224
:102480000DD1702294438268224399420ADC0123D1
:102490009B0799420CD04F4B994209D024E0224629
:1024A0009942F4DD494B994202D0494B99421BD1E4
:1024B00003231B029A4303691343C268CA6242683A
:1024C0008A620A68042414430C6001224A61802451
:1024D000A343406918430860AA71AA70EA702A7180
:1024E0006A716A700020B0BD1346E6E7B0B586B0E9
:1024F00000240594049403940294019401683548DF
:10250000814222D00120820791422CD117490A68CA
:1025100002430A600C390A6802231A430A600968F8
:102520001940009105930494039402938002019052
:1025300000980F4801A9FEF721FC0F2528462146E7
:102540002246FEF751FD28460BE0084801680222AA
:102550000A4302601024002120460A46FEF744FD8B
:102560002046FEF735FD06B0B0BDC046381002402B
:10257000000400503921415C012912D10146393152
:1025800002220A700068C26801210A43C2600E4A32
:10259000904208DC8A0790420BD00E4A904208D045
:1025A0000CE001207047FB4A904202D0FA4A904268
:1025B00004D1826807231340062B02D002680A4325
:1025C000026000207047C046FF0701400014014030
:1025D0000008014000040040F0B53822825C012A66
:1025E00001D10220F0BD0246383202235370504E12
:1025F0003346773B0468A0681840A0600D6800234C
:102600004F2D1FDC1F2D36DD202D38D0302D36D03C
:10261000402D00D087E0206A256A0126B543256257
:10262000A569F026B543CE6836012E43A6610A257A
:10263000A843496801432162A06847210143302033
:1026400081436AE06F2D26DD01204703BD4257D04C
:102650000003854218461AD0702D64D1A06830401E
:102660004D688E68C9682E43090231430143A16059
:10267000A068772150E0002D01D0102D53D1A06823
:1026800070218843054307202843A0601846137033
:1026900001215170F0BD502D1BD0602D43D1256A12
:1026A0001020C043266A064026620F263603A7691B
:1026B000B743CE6836033E43A661A026B5434968BA
:1026C000090129432162A16867250D430540A560E2
:1026D00024E0206A256A0126B5432562A569F02613
:1026E000B543CE6836012E43A6610A25A843496842
:1026F00001432162A06857210143202081430CE05F
:10270000A56835404E688F68C96837430902394368
:102710002943A1608003A1680143A160184613709A
:1027200001215170F0BD0120137001215170F0BDE5
:10273000FF00FFFFF0B581B0017E04295FD1314E6B
:102740007178002913D07178012958D108210546E4
:10275000009100F0ADFAF0602D6800276F62F0681C
:10276000B168884218D9F068B168401A1DE00821A4
:10277000044600F09DFAB060012070700520400210
:1027800021680A6A82430A6255208000AC300A6AD6
:1027900002430A6201B0F0BDB068F168884205D911
:1027A000B068F168081A1849401870617369306997
:1027B000716998420A4600D80246984200D80846F5
:1027C000801AB061746955208100706948437D2189
:1027D000090101F0CDF8FDF7EFFDF0610120307047
:1027E000777005204002296A814329623461286A92
:1027F000286206480068C168009A9143C16001B030
:10280000F0BDC04678000020FFFF0000500100200E
:10281000F0B582B03823C35C012B02D1022002B094
:10282000F0BD034638330224E241032A00D984E094
:102830007A44127952009744015C15360268146A92
:10284000156A012085431562CD68019560C900961F
:102850009769AE4E0839B24274DC8607B24277D02F
:10286000AD4E73E00068026A01242402056AA543A4
:1028700005624C68F025AC43CD682D01EDB22C19F2
:10288000C569F326B5432543C561052464020D6877
:102890002D022540A24352190262C2690C24A243B0
:1028A000C261896823E00068026A01242403056A82
:1028B000A54305624C682402354D2540CC682403AD
:1028C000A4B26419F3252D02C669AE432643C6613E
:1028D000052464030D682D032540A24352190262AA
:1028E00003229202C4699443C461896809021C30BE
:1028F00045E00068026A046A1025AC4304624C6833
:102900002402234D2540CC682403A4B26419F32586
:102910002D028669AE43264386610C682401A025FA
:102920002C40AA4312190262032292028469944342
:10293000846189680902183021E0012000211970A2
:1029400002B0F0BD724EB24202D0724EB24202D11B
:10295000032087430098074310461830F026B743FA
:10296000019E3601F6B2BE1996610A263540B4437F
:102970006419146294690C25AC43946189680268F7
:102980000A43026000200021197002B0F0BDC04669
:10299000000FFFFF0014014000080140B0B50028FF
:1029A00019D0054638356978002905D100212970EC
:1029B000044600F04DF820460221697001680C6859
:1029C000524B994209DC0122920791420BD0524AA4
:1029D000914208D015E00120B0BD4D4A914202D08D
:1029E0004C4A91420DD1702294438268224399420D
:1029F0000ADC01239B0799420CD0474B994209D02E
:102A000024E022469942F4DD414B994202D0414BE9
:102A100099421BD103231B029A4303691343C268E3
:102A2000CA6242688A620A68042414430C60012264
:102A30004A618024A343406918430860AA71AA70C0
:102A4000EA702A716A716A700020B0BD1346E6E729
:102A50007047000002463A3200290DD0042906D002
:102A600008290FD13C23C35C012B0FD039E03B2355
:102A7000C35C012B35D109E01378012B31D102233E
:102A800013700DE03D23C35C012B2AD102230829DA
:102A900003D0042903D1537002E0937000E0D37097
:102AA00002230A46DA41032A1BD89200164B9A5891
:102AB0000068C3681343C3601F22114001221346FC
:102AC0008B40016A99430162016A194301620F490F
:102AD000884208DC910788420BD00F49884208D011
:102AE0000CE0012070470A49884202D00949884217
:102AF00004D1816807230B40062B02D001681143E3
:102B0000016000207047C046E43C0008FF07014018
:102B1000001401400008014000040040F0B585B0F9
:102B200004460068C5680227294639404A424A419E
:102B30000169049139404B424B41134340210291BA
:102B4000C9430391002B13D103993E310161012147
:102B500021768069800703D02046FFF7EBFD05E072
:102B6000204600F094F8204600F092F800202076ED
:102B70000126042229461140484248410499490748
:102B8000314600D50146032000020190002916D1EC
:102B90000092206803993C31016127768069019990
:102BA000084203D02046FFF7C5FD05E0204600F0AF
:102BB0006EF8204600F06CF800202076009A082776
:102BC000294639404842484104990907314600D511
:102BD0000146002913D1206803993831016122761A
:102BE000C069800703D02046FFF7A4FD05E020461A
:102BF00000F04DF8204600F04BF800202076102120
:102C00002940484248410499C906314600D5014649
:102C1000002914D120680399303101612776C069F9
:102C20000199084203D02046FFF784FD05E02046C5
:102C300000F02DF8204600F02BF80020207601212E
:102C40002940484248410499C907314600D001460D
:102C5000002906D1206803993F310161204600F028
:102C600019F802980540684268410499490603D45E
:102C7000002E04D005B0F0BD0646002EFAD1206823
:102C800003990161204600F01EF805B0F0BD7047C1
:102C900070470000044909680068884200D0704706
:102CA000024801210170704790010020200200209D
:102CB0000222D141032904D8890000684018406BE2
:102CC0007047002070477047F0B583B0002836D0B9
:102CD0000446064648367078002804D1002030703B
:102CE000204600F0DDF802207070206801680125A0
:102CF000A94301602169A2680A436169114302681E
:102D00005E4B13400B43E90319430160A169226A3A
:102D10000A43E1691143E2680A433F21090243681B
:102D20008B431343E90219434160554988420ADC49
:102D3000714988421BD05549884223D078E001254B
:102D4000284603B0F0BD4F4988421BD04E49884207
:102D50006ED14F48016803200840C046784400798E
:102D600040008744017B716BFEF784FB0CE0484810
:102D700000680007800FC04678440079400087440F
:102D8000016D635DFEF76CFB400061684A08101836
:102D900000F0EEFD0246103A3E498A4248D20096C3
:102DA00001400007400F08432168C86001239803D1
:102DB0004A6882434A6088682A229043886008688B
:102DC0000293184308600020A063E0630190E06470
:102DD000FEF7AEF806462068016809070FD5C169FD
:102DE00089020CD4029845057D20C700FEF7A0F8A3
:102DF000801BB84235D82068C1692942F6D00168E5
:102E0000490701990D462ED5C06940020D462AD4C6
:102E1000029885057D20C700FEF78AF8801BB8421E
:102E20001FD82068C0692842F6D001990D461AE0E3
:102E30000020A063E063284603B0F0BD6168480845
:102E4000144A80181030A3E761684808104A4C3AC9
:102E50001268D2060ED4114A801899E7FEF71AFBC1
:102E600092E7032501990098017002994170284664
:102E700003B0F0BD084A80188AE7C046F369FFEF47
:102E8000FF4F00400050004000380140004C00401F
:102E90004C100240F0FF000000127A000048E801E8
:102EA00010B586B000210591049103910291019122
:102EB0000068114A904201D006B010BD01204204C2
:102EC0000E4BDC681443DC601A6802431A601A680F
:102ED00002400092042005900320049003910220F8
:102EE00002901C20019005200007009901A9FDF720
:102EF00045FF06B010BDC046004400402C10024003
:102F0000FEE7000010B5D948402101242246FEF713
:102F100006F8D748FEF7C2FD01282DD0D448FEF7A9
:102F2000BDFD012828D0D248FEF7B8FD012823D0E6
:102F3000CF48FEF7B3FD01281ED0CD48FEF7AEFD09
:102F4000012819D0CA48FEF7A9FD012814D0C848A5
:102F5000FEF7A4FD01280FD0C548FEF79FFD01280C
:102F60000AD0C348FEF79AFD012805D0C048FEF7F5
:102F700095FD401E44424441204610BDF0B585B049
:102F80000293164600910446B84840210191002260
:102F9000FDF7C5FF03A90C70B54D01240A2728468B
:102FA00022463B46FEF71EFF0422284600993B4678
:102FB000FEF718FF04A90E70284622463B46FEF78E
:102FC00011FF2846029932463B46FEF70BFFA74801
:102FD00001992246FDF7A3FF05B0F0BDF0B583B01F
:102FE000A248402500222946FDF799FF01A9A0200B
:102FF00008709F4801260A2432462346FEF7F2FE57
:1030000002AF9B48394632462346FEF7EDFD3C7839
:10301000964829463246FDF782FF204603B0F0BDB0
:1030200070B582B00646F04C402500222046294665
:10303000FDF775FF01A90E708D4801260A2332465F
:10304000FEF7D0FE204629463246FDF768FF02B063
:1030500070BDC046F0B587B0E34840240022214649
:10306000FDF75DFF01A902200870EF4D01270A2638
:1030700028463A463346FEF7B5FE02A90F200870EF
:1030800028463A463346FEF7ADFE03A98020087075
:1030900028463A463346FEF7A5FED34821463A462F
:1030A000FDF73DFF402100910022CF48FDF737FF9B
:1030B00004A90320087001240A25DB48074622469C
:1030C0002B46FEF78FFE05A90E20087038462246D3
:1030D0002B46FEF787FE06AFD348394622462B46DD
:1030E000FEF782FD3D78C04800992246FDF717FFA4
:1030F000E0212940802902D0761E3006D2D18039C5
:103100004842484107B0F0BDF0B589B0B64840210B
:10311000029100252A46FDF702FF03A9022008704C
:10312000C14C01270A2620463A463346FEF75AFE8E
:1031300004A90F20087020463A463346FEF752FE97
:1031400005A90D7020463A463346FEF74BFEA648C9
:1031500002993A46FDF7E3FE402102910022A2487F
:103160000192FDF7DCFE06A90320087001270A255D
:10317000AD4804463A462B46FEF734FE07A90E201A
:10318000087020463A462B46FEF72CFE08ACA648AF
:1031900021463A462B46FEF727FD247892480299AD
:1031A0003A46FDF7BCFE202C02D3761E3006D3D162
:1031B000202C00D3019F384609B0F0BDF0B585B092
:1031C000019100908848402500222946FDF7A7FE7E
:1031D00002A902200870944C01270A2620463A468C
:1031E0003346FEF7FFFD03A90098087020463A46D3
:1031F0003346FEF7F7FD04A90198087020463A46C9
:103200003346FEF7EFFD784829463A46FDF787FE3C
:1032100005B0F0BDF0B585B0029201910446724848
:10322000402500222946FDF77AFE03A902200870F6
:103230007D4801260A2732463B46FEF7D3FD04A906
:103240000C70794832463B46FEF7CCFD0198001BD6
:10325000401CC2B2744802993B46FEF7C3FD624867
:1032600029463246FDF75BFE05B0F0BD0004005074
:10327000F8000020B0B582B02C22164800218154FD
:10328000154A01248162018404230163416381633F
:10329000C163A50724C0016041608460C36001610F
:1032A0004161FF22C232C261019100910838FDF7ED
:1032B000FDFA002801D0FDF762FA00942003019086
:1032C00004486946FDF760FA002801D0FDF757FA77
:1032D00002B0B0BD9C00002000240140F0B58BB0CE
:1032E00000240A9409940894079406943D480168C0
:1032F000042211430160016811400591059901689C
:10330000802211430160016811400591059901680F
:10331000012529430160016829400591059901684B
:1033200002221143016000681040059005980520B5
:1033300000070190202104912246FDF7F0FD2A4E5E
:103340001021029130462246FDF7E9FD402103910C
:1033500030462A46FDF7E3FD089421200004009042
:10336000079068030690214806AF3946FDF706FD31
:1033700009940894079504980690019E30463946B2
:10338000FDF7FCFC0895009807902802069030464F
:103390003946FDF7F3FC09940894079502980690C6
:1033A000114E30463946FDF7E9FC0894079404981D
:1033B000069030463946FDF7E1FC099508940795DB
:1033C0000398069030463946FDF7D8FC0725284675
:1033D00021462246FDF708FE2846FDF7F9FD0BB011
:1033E000F0BDC0462C100240000400500008005000
:1033F00080B50D4800210D4A0723016241628162B8
:10340000C36241239B000CC0FC33016041608160BA
:10341000C160036141610838FEF743FB002801D019
:10342000FDF7ADF980BDC046F80000200030014036
:10343000B0B58AB0FA480024214917220125AB070C
:10344000036042608460C16004614461099408942F
:103450000794059404940394029401940094FEF755
:10346000EBFF002801D0FDF78AF928030690EC480D
:1034700006A9FFF7B1F8002801D0FDF780F9E84868
:10348000FFF78CFA002801D0FDF779F90594049430
:10349000E34804A9FEF7A2FF002801D0FDF76FF969
:1034A0000394029401950094DD4869460822FFF7D1
:1034B000AFF9002801D0FDF762F90AB0B0BDC046EF
:1034C000FFFF000010B586B075480021144A154B67
:1034D000154C046043608160C260016141610591E7
:1034E0000491039101910091FEF7A6FF002801D0FD
:1034F000FDF745F9012000030290694802A9FFF792
:103500006BF8002801D0FDF73AF965486946FEF7E7
:1035100065FF002801D0FDF732F906B010BDC046A6
:10352000E7030000BF5D00000004004010B50B4839
:10353000002101620C220A4BE124640218C00160E0
:1035400041608160C260016141610838FFF7BCFBE6
:10355000002801D0FDF713F910BDC046D0010020AE
:1035600000440040FEE77047F0B583B01F461446A4
:103570000D460190089EFDF7DBFC301A0097C61936
:10358000FDF7D6FC019B07463B4800684001000D53
:1035900070430290196888682840401B42424241AB
:1035A0000020A24201D103B0F0BD009A521C30D0DD
:1035B0005033009308E0126892682A40521B53422D
:1035C0005341A3420E46EED0FDF7B2FCC01BB04201
:1035D00027D20020029900290146019AEBD00299D6
:1035E000491E02913146E6E78A682A40521B53423F
:1035F0005341A342D7D08A682A40521B53425341B9
:10360000A342D0D08A682A40521B53425341A3425E
:10361000C9D08A682A40521B53425341A342E3D186
:10362000C1E7019B18684168E02291434160412154
:1036300089005A688A420CD199680122D3039942C1
:10364000019B02D09202914203D101684022914332
:10365000016001214A039B6A934205D103689343A9
:1036600003600368134303600020009A10705170D8
:10367000032003B0F0BDC04608000020704780B5AD
:10368000FDF75AFC80BD704780B5B448FFF746FA95
:1036900080BDC04680B5B248FFF740FA80BDC04645
:1036A00090010020F0B589B05C4E00253570AD4F1B
:1036B0001021012238460392FDF731FCA74C206807
:1036C0004562416A092908D8416A092905D8416A31
:1036D000092902D8416A0A29F3D310210022384669
:1036E0000192FDF71CFC2068C16808220A43C260F1
:1036F0007D21CF003178002915D100210A46416291
:10370000436ABB4208D2436ABB4205D2436ABB420A
:1037100002D2436ABB42F3D33378002B03D1531C4C
:103720003B2A1A46EBD3B06902903E4D2846FDF77E
:103730005BFA28463946FDF7C3F92846FDF7B2F88B
:1037400007462846FDF782FA3846FCF735FE36492B
:10375000FCF756FD354900F03BFA3062376A20210C
:103760008048FDF7CFFB31794D1C3571F188491C3C
:10377000F180401E44424441B4707F20C105384668
:1037800000F0F1F9411E884102993029039F394622
:1037900000D801990C432040F1780143F170E8B260
:1037A000032807D0F0883C2838461FD2C00720D015
:1037B00009B0F0BD080613D004A800240474012148
:1037C0000170452207921A4A06920591FCF76CFF98
:1037D000052000072021FDF79AFBF4807471F47036
:1037E00000203071F0883C283846DFD37079C0075C
:1037F000DED104A80024047407700E4907910E4915
:10380000069102210591FCF74FFF052000072021BA
:10381000FDF77DFBF480777109B0F0BD78000020E2
:10382000500100209C00002000F07F450000A040D7
:103830000857414B6570000008736C659EB0FDF73A
:1038400085FB10AC38212046FCF7D4FC00270F97ED
:103850000E970D970C970B9701A82821FCF7CAFC2F
:103860000326F0023C490A68824301201390C302F8
:10387000D2180A601C971B9702251A9510211491E3
:10388000109580051D902046FDF740FE002803D0CE
:10389000EFF3108072B6FEE70F970E970D970C9618
:1038A0000F200B900BA80121FDF7D6FC002803D0B8
:1038B000EFF3108072B6FEE70597019501A8FDF7BA
:1038C000AFFB002803D0EFF3108072B6FEE7FFF7DE
:1038D00005FDFFF78DFDFFF729FEFFF7CBFCFFF796
:1038E000A7FDFFF7EFFDFCF77FFE1C4D08242846DF
:1038F0002146FFF7AFF81A48FEF73CFE2868C1687A
:10390000A143C160174E102101223046FDF707FB8D
:1039100028684762416A092908D8416A092905D8F7
:10392000416A092902D8416A0A29F3D310210027E4
:1039300030463A46FDF7F3FA2868C1682143C16072
:10394000094C0A4D20780028FCD128780028F9D0AD
:103950002F70FFF7A7FEF5E7007000405001002030
:1039600090010020000400500C00002020020020E4
:1039700043088B421AD3002203098B4279D3030AEE
:103980008B425ED3030B8B4242D3030C8B4227D373
:103990000902FF2212BA030C8B4202D3121209024F
:1039A00003D0030B8B4233D31AE0D3E0411A80419A
:1039B000401C704703460B4371D443088B42F5D338
:1039C000002203098B4254D3030A8B4239D3030BE1
:1039D0008B421DD3030C8B4202D394466EE0090A3E
:1039E000C30B8B4201D3CB03C01A5241830B8B42D2
:1039F00001D38B03C01A5241430B8B4201D34B03BB
:103A0000C01A5241030B8B4201D30B03C01A52411F
:103A1000C30A8B4201D3CB02C01A5241830A8B42A4
:103A200001D38B02C01A5241430A8B4201D34B028D
:103A3000C01A5241030A8B4201D30B02C01A5241F1
:103A4000CDD2C3098B4201D3CB01C01A52418309A5
:103A50008B4201D38B01C01A524143098B4201D3DF
:103A60004B01C01A524103098B4201D30B01C01A0A
:103A70005241C3088B4201D3CB00C01A5241830884
:103A80008B4201D38B00C01A524143088B4201D3B1
:103A90004B00C01A5241411A524110007047CA0FE0
:103AA00000D04942031000D34042534000229C46BC
:103AB00003098B422DD3030A8B4212D38901FC22C6
:103AC00012BA030A8B420CD3890192118B4208D39C
:103AD000890192118B4204D3890137D0921100E001
:103AE0008909C3098B4201D3CB01C01A5241830912
:103AF0008B4201D38B01C01A524143098B4201D33F
:103B00004B01C01A524103098B4201D30B01C01A69
:103B10005241C3088B4201D3CB00C01A52418308E3
:103B20008B4201D38B00C01A5241D9D243088B4239
:103B300001D34B00C01A5241411A00D201465241F2
:103B4000104663465B1000D34042704763465B10EB
:103B500000D3404201B50021004201D0C9430846CC
:103B6000C046C04602BD10B500F008F8EFF3008073
:103B70004000800F012800D0002010BD0123DB058C
:103B800002000A430DD4DA4203D49A4207D4884291
:103B90007047D84214D4D94212D488427047804228
:103BA0007047DA4203D59A42F9D5814270475B00EB
:103BB0004200DA4204D24A00DA4201D2814270471E
:103BC00010B5024AFCF7FCFB10BD00BF090013044E
:103BD00070B5420064414B005C41120E39D01B0E9F
:103BE00038D0FF2A3CD0FF2B3AD0D2187F3A40027F
:103BF0004902400A490A4518ED0106004E43000AF1
:103C0000090A48430104731A4019190C4318990F03
:103C100004D05B08012149075B1A521CD80904D360
:103C2000401CF50301D19D0607D0FF2A08D2D50517
:103C300006D0E4072043401970BD0125A843F4E7EE
:103C4000002A01DCE00770BD2402FF202043C005EC
:103C500070BD1B0EFF2A03D0FF2B01D0E00770BD03
:103C6000FF2636064500B54206D84D00B54203D8BA
:103C7000D218FF2A00D0E7E7004870BD0000C07FDF
:103C80008182838485868788898B8C8D8E8F9192A3
:103C900093959697999A9C9D9FA0A2A3A5A7A8AA41
:103CA000ACAEB0B2B3B5B7B9BCBEC0C2C5C7C9CC63
:103CB000CED1D4D7D9DCDFE2E6E9ECF0F3F7FAFEB7
:103CC00000000000000000000102030406070809CC
:103CD0000000000001020304030406080C10182071
:103CE0003000000002000000040000000800000096
:103CF00010000000FDFFFFFFFBFFFFFFF7FFFFFFCE
:103D0000EFFFFFFFFFFDFFFFFFFBFFFFFFF7FFFFE1
:103D1000FFEFFFFF383D000800000020100000000A
:103D20001C010008483D0008100000201808000091
:103D30003C01000800000000010000000400000039
:083D400000002000010000005A
:04000005080000C12E
:00000001FF
